:100000000C94BF000C94DC000C94DC000C94DC001D
:100010000C94DC000C94DC000C94DC000C94DC00F0
:100020000C94DC000C94DC000C94DC000C94DC00E0
:100030000C94DC000C94DC000C94DC000C94DC00D0
:100040000C94DC000C94DC000C94DC000C94DC00C0
:100050000C94DC000C94DC000C94DC000C94DC00B0
:100060000C94DC000C94DC000C94DC000C94DC00A0
:100070000C94DC000C94DC000C94DC006E616E00CF
:10008000696E660000407A10F35A00A0724E18099B
:100090000010A5D4E80000E87648170000E40B54EF
:1000A000020000CA9A3B000000E1F50500008096BE
:1000B0009800000040420F000000A08601000000F0
:1000C000102700000000E8030000000064000000AA
:1000D00000000A00000000000100000000002C7673
:1000E000D888DC674F0823DFC1DFAE59E1B1B7968E
:1000F000E5E3E453C63AE651997696E8E6C28426EB
:10010000EB898C9B62ED407C6FFCEFBC9C9F40F2C6
:10011000BAA56FA5F490055A2AF75C936B6CF96742
:100120006DC11BFCE0E40D47FEF520E6B500D0ED07
:10013000902E0300943577050080841E080000206F
:100140004E0A000000C80C333333330F986E12830D
:100150001141EF8D2114893BE65516CFFEE6DB18E1
:10016000D1844B381BF77C1D901DA4BBE4242032A6
:1001700084725E228100C9F124ECA1E53D2711249F
:100180001FBECFEFD0E1DEBFCDBF11E0A0E0B1E0F8
:10019000E8E7F4E102C005900D92A435B107D9F764
:1001A00011E0A4E5B1E001C01D92AA35B107E1F765
:1001B0000E9425080C943A0A0C940000CF93C82F93
:1001C0008A3019F48DE00E94DE008091C00085FF26
:1001D000FCCFC093C6002C2F332727FD30958C2FE2
:1001E000932FCF9108958091C00087FFFCCF80911D
:1001F000C60090E008951092C5008DE48093C4007D
:1002000088E18093C10086E08093C20080E091E0A5
:100210009093570180935601909359018093580110
:100220008EE091E0909355018093540108951092CF
:100230007C0086E880937A000895CF93DF938091C5
:100240007A00806480937A0080917A0086FDFCCFEA
:10025000C0917800D0917900DF93CF9384E291E050
:100260009F938F930E94C509BE0180E090E00E9499
:10027000F20223E333E343E550E40E946A0120E005
:1002800030EC4FE754E40E944F020F900F900F9014
:100290000F90DF91CF910895569A579A83E88093F3
:1002A000B00081E08093B1000895CF93C82F813FC3
:1002B00008F0C0EF1F92CF932CE231E03F932F93D1
:1002C0000E94C509C093B3000F900F900F900F903C
:1002D000CF910895A0E2B0E0E0E7F1E00C945B0874
:1002E0006D8F7E8F8F8F98A3298F3A8F4B8F5C8F66
:1002F000BE016F5E7F4FCE014D960E943204BE015B
:10030000675F7F4FCE0149960E94320499899230EF
:1003100008F412C08985823008F41AC0943021F4A0
:10032000823009F4B4C008C0843021F4923009F45A
:10033000AEC00EC0923051F481E02A899A8529130B
:1003400001C080E08A8BCE014196A3C0823051F477
:1003500081E02A899A85291301C080E08A87CE012D
:10036000099697C08D889E88AF88B88C0D851E85AC
:100370002F853889E0E2F0E080E090E0DC01C12CDC
:10038000D12C760140E050E0BA0180FE18C0400F49
:10039000511F621F731F8C0D9D1DAE1DBF1D412C73
:1003A000512C32014394401751076207730718F02C
:1003B000412C512C3201840D951DA61DB71DCC0C6E
:1003C000DD1CEE1CFF1C37FF02C06894C0F8000F54
:1003D000111F221F331FB694A794979487943197C7
:1003E000A1F62B893C89EB85FC852E0F3F1F2E5FE4
:1003F0003F4F3C832B8321E0EA893A85E31301C018
:1004000020E02A83EB81FC810CC080FF05C076953B
:100410006795579547957068B695A7959795879571
:100420003196B7FDF2CF9F010CC0880F991FAA1F0C
:10043000BB1F77FD8160440F551F661F771F21503A
:1004400031090097A105E0E4BE0778F32B833C83D4
:100450008C019D010F7711272227332700341105C6
:100460002105310559F487FD09C0452B462B472B43
:1004700029F0805C9F4FAF4FBF4F80788D839E8364
:10048000AF83B88783E08983CE01019602C08CE1F7
:1004900091E00E946803A096E0E10C947708A8E13F
:1004A000B0E0E5E5F2E00C9463086D8B7E8B8F8BFA
:1004B000988F298B3A8B4B8B5C8BBE01675F7F4F8C
:1004C000CE0145960E943204BE016F5F7F4FCE0180
:1004D00041960E9432049985923008F475C0898152
:1004E000823008F474C02A853A8123272A87943001
:1004F00011F0923019F4981367C06CC0843039F44D
:100500001D861E861F86188A1C861B8604C08230A4
:1005100029F484E08987CE0109965EC08B859C858D
:100520002B813C81821B930B9C878B874D855E853D
:100530006F857889CD80DE80EF80F8844C155D056D
:100540006E057F0538F4440F551F661F771F01970E
:100550009C878B87EFE1F0E000E010E020E030E4E2
:1005600080E090E0DC014C155D056E057F0540F0F4
:10057000802B912BA22BB32B4C195D096E097F099F
:100580003695279517950795440F551F661F771FBA
:10059000319749F78C019D010F77112722273327C7
:1005A000003411052105310559F487FD09C0452B9B
:1005B000462B472B29F0805C9F4FAF4FBF4F807871
:1005C0008D879E87AF87B88BCE01099605C0CE0177
:1005D000019602C08CE191E00E9468036896E8E011
:1005E0000C947F08A8E0B0E0E8EFF2E00C94630818
:1005F0008B019C011A82611571058105910519F421
:1006000082E089835DC083E089834EE150E05C83B2
:100610004B83C901B8010E949008019797FF39C028
:10062000EE27FF27E81BF90B41E050E060E070E0A7
:100630000E2E04C0440F551F661F771F0A94D2F771
:1006400041505109610971094023512362237323E9
:10065000C12CD12C7601C394452B462B472B19F482
:10066000C12CD12C760104C0369527951795079596
:10067000EA95D2F70C291D292E293F290D831E83C7
:100680002F8338872EE130E0281B390B3C832B83E6
:1006900017C0009729F40D831E832F83388710C05D
:1006A000082E04C0000F111F221F331F0A94D2F717
:1006B0000D831E832F833887481B590B5C834B8324
:1006C000CE0101960E9468032896E8E00C947F080A
:1006D0000F931F93CF93DF93DC0114964D915D919F
:1006E0006D917C9117971196EC9111978C918230B6
:1006F00020F460618FEF90E0A6C0843009F49EC0C2
:10070000823009F495C0411551056105710509F460
:1007100092C012962D913C91139722388FEF380793
:100720000CF058C0C2E8DFEFC21BD30BCA31D105B1
:100730006CF58A019B010C2E04C036952795179500
:1007400007950A94D2F781E090E0A0E0B0E00C2E8B
:1007500004C0880F991FAA1FBB1F0A94D2F70197E4
:10076000A109B10984239523A623B72341E050E0D2
:1007700060E070E0892B8A2B8B2B19F440E050E06D
:10078000BA01402B512B622B732B03C040E050E089
:10079000BA01DB01CA018F779927AA27BB278034CA
:1007A0009105A105B10539F447FF09C0405C5F4FD1
:1007B0006F4F7F4F04C0415C5F4F6F4F7F4F81E0B1
:1007C00090E041155105610520E4720748F580E08D
:1007D00090E026C0203831058CF5DB01CA018F7707
:1007E0009927AA27BB2780349105A105B10539F4C3
:1007F00047FF09C0405C5F4F6F4F7F4F04C0415CB3
:100800005F4F6F4F7F4F77FD04C0C90181589F4FE5
:1008100007C07695679557954795C90180589F4FB2
:1008200097E076956795579547959A95D1F70BC0C0
:1008300080E090E005C080E090E005C08FEF90E0A0
:1008400040E050E0BA01982F9695E0FB97F9362FDB
:1008500080FB37F9642F752F832FDF91CF911F9184
:100860000F910895CF92DF92EF92DC01FB01CC90C3
:100870001196DC90119712968C9112973FE7E32E18
:10088000E8226E2DA60170E0982F991F9927991FD5
:1008900013962C91822F880F892B90E027FB22271B
:1008A00020F92183009729F541155105610571054E
:1008B00011F482E027C082E89FEF9383828327E0D0
:1008C000440F551F661F771F2A95D1F783E0808359
:1008D00009C0440F551F661F771F828193810197BE
:1008E0009383828341155105610580E4780788F37D
:1008F00020C08F3F910579F44115510561057105BF
:1009000019F484E0808319C0E4FE03C081E0808391
:1009100010C010820EC08F5791099383828383E0A9
:10092000808387E0440F551F661F771F8A95D1F794
:1009300070644483558366837783EF90DF90CF9014
:100940000895A3E1B0E0E7EAF4E00C9459087C01D3
:100950005B018A01FC0117821682838181FD03C03D
:100960006DC3860105C088248394912C8C0E9D1E36
:10097000F7019381F50193FD859193FF81915F01CB
:10098000882309F457C3853239F493FD859193FF89
:1009900081915F01853231F4B70190E00E9499099D
:1009A0006801DFCF412C512C20E02032A8F48B329B
:1009B00061F028F4803251F0833271F40BC08D3233
:1009C00039F0803349F4216028C02260246025C0BA
:1009D000286023C0206121C027FD27C0382F305355
:1009E0003A3078F426FF06C0FAE04F9E300D11240D
:1009F000432E13C08AE0589E300D1124532E2062DE
:100A00000CC08E3221F426FD15C3206406C08C363E
:100A100011F4206802C0883641F4F50193FD8591F8
:100A200093FF81915F018111C0CF982F955493302E
:100A300018F42061805E06C0982F9556933008F018
:100A4000A1C12F7E26FD02C056E0452E4FE3742E35
:100A50007222853619F4F0E47F2A07C0863619F42D
:100A600020E8722A02C041104A9477FE07C03BE397
:100A7000341548F0342C339427E00DC087E08415FA
:100A800030F0242D07C027E03CE3332E04C027E0DC
:100A900097E0492E312C680194E0C90ED11CF80171
:100AA0006081718182819381032DA4010E94AB0832
:100AB0008C0129812C8720FF02C023FF07C071FC15
:100AC00008C072FE09C080E2682E07C0BDE26B2E2E
:100AD00004C0ABE26A2E01C0612C8C858C70A1F140
:100AE000662011F084E001C083E0851510F0512CE0
:100AF0000BC0581A73FC08C0B70180E290E00E9456
:100B000099095A94C9F7F3CF662029F0B701862DC9
:100B100090E00E9499093C8533FD03C000E810E095
:100B20000CC00CE710E009C071108052B70190E0D2
:100B30000E9499090F5F1F4F02C080E17822F801DF
:100B400084918111F1CF73C277FE0EC0300E2C85D7
:100B500024FF04C08A81813309F43A9413144CF5BC
:100B600038E0331548F12CC076FC2AC0242D30E043
:100B70002017310744F00C3F8FEF180724F090E85E
:100B8000792A01C04A94442049F0E2E0F0E0EC0FF9
:100B9000FD1FE40DF11D80818033A1F377FE10C0AD
:100BA000342C3394242D30E00217130744F4401AF8
:100BB00007C03324339404C0F8E03F2E01C0412C19
:100BC00077FE07C0101611063CF498012F5F3F4FC7
:100BD00005C025E030E002C021E030E0662011F0E1
:100BE0002F5F3F4F442031F0442D50E04F5F5F4F67
:100BF000240F351F452D50E02417350714F4521AE1
:100C000001C0512C872D897049F406C0B70180E2DC
:100C100090E00E9499095A945110F8CF662029F06B
:100C2000B701862D90E00E94990973FC09C006C0A7
:100C3000B70180E390E00E9499095A945110F8CFCF
:100C400077FE53C0380117FF02C0612C712C1E863D
:100C50001D86980123193109388B2F871801261812
:100C60003708280C391C642D70E022273327261BF7
:100C7000370B3A8B298B3FEF6316730629F4B701C4
:100C80008EE290E00E949909061517055CF02F8509
:100C900038892615370534F4ED85FE85E20DF31D00
:100CA000818101C080E331E0631A71082D853E85A2
:100CB0002F5F3F4F3E872D8729893A896216730639
:100CC0002CF0B70190E00E949909D5CF601671060B
:100CD00049F49A81963328F4953321F43C8534FD08
:100CE00001C081E3B70190E04AC08A81813319F0E5
:100CF0002C852F7E2C87B70190E00E949909411026
:100D000005C074FE16C085E490E015C0B7018EE200
:100D100090E00E949909E2E06E2EF401E60DF11DCB
:100D20006394B701808190E00E9499094A94A9F7E1
:100D3000E8CF85E690E0B7010E94990917FD06C04B
:100D40000115110541F43C8534FF05C0119501954D
:100D500011098DE201C08BE2B70190E00E94990970
:100D600080E303C08F5F0A5011090A301105D4F7E0
:100D7000B70190E00E949909B701C801C0960E948E
:100D8000990955C1833631F0833781F0833509F0F5
:100D90005EC024C0680182E0C80ED11CF8018081C9
:100DA000898366246394712C840114C06801F2E085
:100DB000CF0ED11CF8010081118126FF03C0642DE4
:100DC00070E002C06FEF7FEFC8012B8B0E948E098D
:100DD0003C012B896FE7462E422217C06801F2E0E2
:100DE000CF0ED11CF8010081118126FF03C0642DB4
:100DF00070E002C06FEF7FEFC8012B8B0E94830968
:100E00003C012B8950E8452E422A43FC1CC006C0F9
:100E1000B70180E290E00E9499095A94852D90E0F4
:100E200068167906A8F30FC0F80147FC859147FEC4
:100E300081918F01B70190E00E94990951105A9455
:100E4000F1E06F1A71086114710471F7F0C0843613
:100E500011F0893661F5680127FF09C034E0C30E3F
:100E6000D11CF80160817181828193810AC0F2E016
:100E7000CF0ED11CF80160817181882777FD8095A4
:100E8000982F4FE6742E722297FF09C09095809597
:100E9000709561957F4F8F4F9F4FF0E87F2A2AE032
:100EA00030E0A4010E94DC09682E681847C085372D
:100EB00031F43FEE732E72222AE030E024C099EF25
:100EC000792E72228F36B9F020F4883509F0B2C03D
:100ED0000DC0803721F0883709F0ACC002C020E196
:100EE000722A74FE0BC034E0732A08C024FF09C0C4
:100EF00086E0782A06C028E030E005C020E130E036
:100F000002C020E132E0680177FE09C094E0C90E1A
:100F1000D11CF801608171818281938108C0F2E067
:100F2000CF0ED11CF8016081718180E090E0A401B6
:100F30000E94DC09682E6818FFE77F2276FE0BC04E
:100F4000072D0E7F641450F474FE0AC072FC08C0B2
:100F5000072D0E7E05C0162D072D03C0162D01C0CE
:100F6000142D04FF0CC0FE01E60DF11D80818033BD
:100F700011F4097E08C002FF05C01E5F04C0802F67
:100F8000867809F01F5F03FD12C000FF0DC0462CDC
:100F9000151550F4450C411A152D06C0B70180E215
:100FA00090E00E9499091F5F1515C0F304C0151544
:100FB00010F4511A01C0512C04FF10C0B70180E396
:100FC00090E00E94990902FF1EC001FF03C088E55E
:100FD00090E002C088E790E0B7010CC0802F8678CF
:100FE00091F001FD02C080E201C08BE207FD8DE2BD
:100FF000B70190E00E94990906C0B70180E390E034
:101000000E9499094A946414C0F36A94F401E60DAD
:10101000F11DB701808190E00E9499096110F5CF20
:1010200006C0B70180E290E00E9499095A945110DD
:10103000F8CF97CCF7012681378102C02FEF3FEF21
:10104000C9016396E2E10C9475080E94FB000E94BE
:101050004C010E941701C0E0D0E08BE3E82E81E054
:10106000F82E03E411E0DF93CF93FF92EF920E94FA
:10107000C5098FEF0E9455010E941D019F938F9318
:101080007F936F931F930F930E94C5099FE72FE4EF
:1010900082E1915020408040E1F700C0000021969D
:1010A0008DB79EB70A960FB6F8949EBF0FBE8DBF40
:1010B000DACF2F923F924F925F926F927F928F92F0
:1010C0009F92AF92BF92CF92DF92EF92FF920F93D7
:1010D0001F93CF93DF93CDB7DEB7CA1BDB0B0FB6E1
:1010E000F894DEBF0FBECDBF09942A88398848889E
:1010F0005F846E847D848C849B84AA84B984C88434
:10110000DF80EE80FD800C811B81AA81B981CE0F2A
:10111000D11D0FB6F894DEBF0FBECDBFED0108950F
:101120000E94990884FF0895CB010E949908805F6E
:101130000895AA27992329F4A85F982B11F480E138
:101140000895903118F4AD5F9295A395990FE8F743
:101150008A2F99270895283008F027E03327DA01ED
:10116000990F311D87FD916000966105710539F475
:1011700032602E5F3D9330E32A95E1F708959F3F5B
:1011800030F080387105610509F03C5F3C5F3D93AC
:10119000913008F08068911DDF93CF931F930F93D8
:1011A000FF92EF92192F987F9695E92F9695969535
:1011B000E90FFF27E252FF4F99273327EE24FF2440
:1011C000A701E70105900894079428F4360FE71E5D
:1011D000F81E491F511D660F771F881F991F06941F
:1011E000A1F70590079428F4E70EF81E491F561F33
:1011F000C11D770F881F991F661F0694A1F70590E0
:10120000079428F4F80E491F561FC71FD11D880FD9
:10121000991F661F771F0694A1F70590079420F485
:10122000490F561FC71FD81F990F661F771F881FAA
:101230000694A9F784911095177041F0D695C7953B
:1012400057954795F794E7941A95C1F7E4E8F0E0CD
:1012500068941590159135916591959105907FE26F
:101260007395E118F10A430B560BC90BD009C0F76F
:10127000E10CF11E431F561FC91FD01D7EF47033B1
:1012800011F48A95E6CFE894015030F0080F0AF483
:101290000027021708F4202F2395022F7A3328F015
:1012A00079E37D932A95E9F710C07D932A9589F615
:1012B000069497956795379517951794E118F10A55
:1012C000430B560BC90BD00998F023957E9173956B
:1012D0007A3308F070E37C932013B8F77E91706145
:1012E0007D9330F0839571E37D9370E32A95E1F768
:1012F0001124EF90FF900F911F91CF91DF919927CB
:1013000087FD90950895FC01059061507040011093
:10131000D8F7809590958E0F9F1F0895FC0161501E
:10132000704001900110D8F7809590958E0F9F1F07
:1013300008950F931F93CF93DF938C01EB018B8163
:1013400081FD03C00FEF1FEF1AC082FF0DC02E8179
:101350003F818C819D812817390764F4E881F981E8
:101360000193F983E88306C0E885F985802F099504
:10137000892B41F78E819F8101969F838E83C801BF
:10138000DF91CF911F910F910895A2E0B0E0EBECB7
:10139000F9E00C946908FE01379661917191FA8326
:1013A000E983AF0180915601909157010E94A104F9
:1013B0002296E2E00C948508FA01AA27283051F120
:1013C000203181F1E8946F936E7F6E5F7F4F8F4F76
:1013D0009F4FAF4FB1E03ED0B4E03CD0670F781FD5
:1013E000891F9A1FA11D680F791F8A1F911DA11DBA
:1013F0006A0F711D811D911DA11D20D009F46894F3
:101400003F912AE0269F11243019305D3193DEF69A
:10141000CF010895462F4770405D4193B3E00FD050
:10142000C9F7F6CF462F4F70405D4A3318F0495D3B
:1014300031FD4052419302D0A9F7EACFB4E0A6951E
:101440009795879577956795BA95C9F70097610540
:10145000710508959B01AC010A2E06945795479596
:1014600037952795BA95C9F7620F731F841F951F8B
:08147000A01D0895F894FFCFC0
:101478000000000200000000DE0000000000000084
:101488000001000000000000F30000000000000060
:10149800000000004144433D2534640050574D3D51
:1014A80025337520203D3D3E202000253034643A08
:1014B80020200020202D2D3E202025352E3366208B
:0414C800560D0A00B3
:00000001FF
